{
  "contractName": "VotingApp",
  "abi": [
    {
      "inputs": [],
      "name": "electionCounter",
      "outputs": [
        {
          "internalType": "uint256",
          "name": "",
          "type": "uint256"
        }
      ],
      "stateMutability": "view",
      "type": "function",
      "constant": true
    },
    {
      "inputs": [
        {
          "internalType": "uint256",
          "name": "",
          "type": "uint256"
        }
      ],
      "name": "elections",
      "outputs": [
        {
          "internalType": "string",
          "name": "name",
          "type": "string"
        },
        {
          "internalType": "address",
          "name": "creator",
          "type": "address"
        },
        {
          "internalType": "bool",
          "name": "isDisable",
          "type": "bool"
        }
      ],
      "stateMutability": "view",
      "type": "function",
      "constant": true
    },
    {
      "inputs": [
        {
          "internalType": "address",
          "name": "",
          "type": "address"
        }
      ],
      "name": "users",
      "outputs": [
        {
          "internalType": "string",
          "name": "",
          "type": "string"
        }
      ],
      "stateMutability": "view",
      "type": "function",
      "constant": true
    },
    {
      "inputs": [
        {
          "internalType": "string",
          "name": "_password",
          "type": "string"
        }
      ],
      "name": "register",
      "outputs": [
        {
          "internalType": "address",
          "name": "",
          "type": "address"
        }
      ],
      "stateMutability": "nonpayable",
      "type": "function"
    },
    {
      "inputs": [
        {
          "internalType": "string",
          "name": "_password",
          "type": "string"
        }
      ],
      "name": "login",
      "outputs": [
        {
          "internalType": "address",
          "name": "",
          "type": "address"
        }
      ],
      "stateMutability": "view",
      "type": "function",
      "constant": true
    },
    {
      "inputs": [
        {
          "internalType": "string",
          "name": "name",
          "type": "string"
        },
        {
          "internalType": "string[]",
          "name": "options",
          "type": "string[]"
        }
      ],
      "name": "createElection",
      "outputs": [],
      "stateMutability": "nonpayable",
      "type": "function"
    },
    {
      "inputs": [
        {
          "internalType": "uint256",
          "name": "electionId",
          "type": "uint256"
        },
        {
          "internalType": "address",
          "name": "voter",
          "type": "address"
        }
      ],
      "name": "addVoters",
      "outputs": [],
      "stateMutability": "nonpayable",
      "type": "function"
    },
    {
      "inputs": [
        {
          "internalType": "uint256",
          "name": "electionId",
          "type": "uint256"
        }
      ],
      "name": "disableElection",
      "outputs": [],
      "stateMutability": "nonpayable",
      "type": "function"
    },
    {
      "inputs": [],
      "name": "getAllElections",
      "outputs": [
        {
          "components": [
            {
              "internalType": "string",
              "name": "name",
              "type": "string"
            },
            {
              "internalType": "address",
              "name": "creator",
              "type": "address"
            },
            {
              "internalType": "bool",
              "name": "isDisable",
              "type": "bool"
            },
            {
              "internalType": "address[]",
              "name": "voters",
              "type": "address[]"
            },
            {
              "internalType": "bool[]",
              "name": "voted",
              "type": "bool[]"
            },
            {
              "internalType": "string[]",
              "name": "optionNames",
              "type": "string[]"
            },
            {
              "internalType": "uint256[]",
              "name": "optionVotes",
              "type": "uint256[]"
            }
          ],
          "internalType": "struct VotingApp.Election[]",
          "name": "",
          "type": "tuple[]"
        }
      ],
      "stateMutability": "view",
      "type": "function",
      "constant": true
    },
    {
      "inputs": [
        {
          "internalType": "uint256",
          "name": "electionId",
          "type": "uint256"
        },
        {
          "internalType": "string",
          "name": "option",
          "type": "string"
        }
      ],
      "name": "vote",
      "outputs": [],
      "stateMutability": "nonpayable",
      "type": "function"
    },
    {
      "inputs": [
        {
          "internalType": "uint256",
          "name": "electionId",
          "type": "uint256"
        }
      ],
      "name": "getElection",
      "outputs": [
        {
          "internalType": "string",
          "name": "name",
          "type": "string"
        },
        {
          "internalType": "address",
          "name": "creator",
          "type": "address"
        },
        {
          "internalType": "bool",
          "name": "isDisable",
          "type": "bool"
        },
        {
          "internalType": "address[]",
          "name": "voters",
          "type": "address[]"
        },
        {
          "internalType": "bool[]",
          "name": "voted",
          "type": "bool[]"
        },
        {
          "internalType": "string[]",
          "name": "optionNames",
          "type": "string[]"
        },
        {
          "internalType": "uint256[]",
          "name": "optionVotes",
          "type": "uint256[]"
        }
      ],
      "stateMutability": "view",
      "type": "function",
      "constant": true
    }
  ],
  "bytecode": "0x608060405234801561001057600080fd5b506124d6806100206000396000f3fe608060405234801561001057600080fd5b50600436106100a95760003560e01c806361e374171161007157806361e37417146101645780637fd5f268146101825780639d710777146101a0578063a87430ba146101d6578063c153717114610206578063f2c298be14610222576100a9565b806324108475146100ae578063349813b2146100ca5780633a7d280c146100e65780634e429b4d146101165780635e6fef0114610132575b600080fd5b6100c860048036038101906100c391906115f7565b610252565b005b6100e460048036038101906100df9190611739565b610467565b005b61010060048036038101906100fb91906117b1565b610657565b60405161010d919061183b565b60405180910390f35b610130600480360381019061012b9190611856565b6106cb565b005b61014c60048036038101906101479190611856565b610703565b60405161015b93929190611926565b60405180910390f35b61016c6107e2565b6040516101799190611973565b60405180910390f35b61018a6107e8565b6040516101979190611e4e565b60405180910390f35b6101ba60048036038101906101b59190611856565b610be7565b6040516101cd9796959493929190612043565b60405180910390f35b6101f060048036038101906101eb9190612101565b610f1e565b6040516101fd919061212e565b60405180910390f35b610220600480360381019061021b9190612150565b610fbe565b005b61023c600480360381019061023791906117b1565b6110d1565b604051610249919061183b565b60405180910390f35b60006001600084815260200190815260200160002090508060010160149054906101000a900460ff16156102bb576040517f08c379a00000000000000000000000000000000000000000000000000000000081526004016102b2906121dc565b60405180910390fd5b600080600090505b826002018054905081101561035c573373ffffffffffffffffffffffffffffffffffffffff168360020182815481106102ff576102fe6121fc565b5b9060005260206000200160009054906101000a900473ffffffffffffffffffffffffffffffffffffffff1673ffffffffffffffffffffffffffffffffffffffff1603610349578091505b80806103549061225a565b9150506102c3565b50600080600090505b83600401805490508110156103cd578480519060200120846004018281548110610392576103916121fc565b5b906000526020600020016040516103a991906123a1565b6040518091039020036103ba578091505b80806103c59061225a565b915050610365565b5060018360030183815481106103e6576103e56121fc565b5b90600052602060002090602091828204019190066101000a81548160ff0219169083151502179055506001836005018281548110610427576104266121fc565b5b906000526020600020015461043c91906123b8565b836005018281548110610452576104516121fc565b5b90600052602060002001819055505050505050565b60006002600081548092919061047c9061225a565b9190505590506000600160008381526020019081526020016000209050838160000190805190602001906104b192919061112e565b50338160010160006101000a81548173ffffffffffffffffffffffffffffffffffffffff021916908373ffffffffffffffffffffffffffffffffffffffff16021790555060008160010160146101000a81548160ff021916908315150217905550600067ffffffffffffffff81111561052d5761052c6114cc565b5b60405190808252806020026020018201604052801561055b5781602001602082028036833780820191505090505b508160020190805190602001906105739291906111b4565b50606367ffffffffffffffff81111561058f5761058e6114cc565b5b6040519080825280602002602001820160405280156105bd5781602001602082028036833780820191505090505b508160030190805190602001906105d592919061123e565b50828160040190805190602001906105ee9291906112e4565b50825167ffffffffffffffff81111561060a576106096114cc565b5b6040519080825280602002602001820160405280156106385781602001602082028036833780820191505090505b50816005019080519060200190610650929190611344565b5050505050565b600081805190602001206000803373ffffffffffffffffffffffffffffffffffffffff1673ffffffffffffffffffffffffffffffffffffffff1681526020019081526020016000206040516106ac91906123a1565b6040518091039020036106c1573390506106c6565b600090505b919050565b600060016000838152602001908152602001600020905060018160010160146101000a81548160ff0219169083151502179055505050565b6001602052806000526040600020600091509050806000018054610726906122d1565b80601f0160208091040260200160405190810160405280929190818152602001828054610752906122d1565b801561079f5780601f106107745761010080835404028352916020019161079f565b820191906000526020600020905b81548152906001019060200180831161078257829003601f168201915b5050505050908060010160009054906101000a900473ffffffffffffffffffffffffffffffffffffffff16908060010160149054906101000a900460ff16905083565b60025481565b6060600060025467ffffffffffffffff811115610808576108076114cc565b5b60405190808252806020026020018201604052801561084157816020015b61082e611391565b8152602001906001900390816108265790505b50905060005b600254811015610bdf57600160008281526020019081526020016000206040518060e001604052908160008201805461087f906122d1565b80601f01602080910402602001604051908101604052809291908181526020018280546108ab906122d1565b80156108f85780601f106108cd576101008083540402835291602001916108f8565b820191906000526020600020905b8154815290600101906020018083116108db57829003601f168201915b505050505081526020016001820160009054906101000a900473ffffffffffffffffffffffffffffffffffffffff1673ffffffffffffffffffffffffffffffffffffffff1673ffffffffffffffffffffffffffffffffffffffff1681526020016001820160149054906101000a900460ff16151515158152602001600282018054806020026020016040519081016040528092919081815260200182805480156109f757602002820191906000526020600020905b8160009054906101000a900473ffffffffffffffffffffffffffffffffffffffff1673ffffffffffffffffffffffffffffffffffffffff16815260200190600101908083116109ad575b5050505050815260200160038201805480602002602001604051908101604052809291908181526020018280548015610a7457602002820191906000526020600020906000905b82829054906101000a900460ff16151581526020019060010190602082600001049283019260010382029150808411610a3e5790505b5050505050815260200160048201805480602002602001604051908101604052809291908181526020016000905b82821015610b4e578382906000526020600020018054610ac1906122d1565b80601f0160208091040260200160405190810160405280929190818152602001828054610aed906122d1565b8015610b3a5780601f10610b0f57610100808354040283529160200191610b3a565b820191906000526020600020905b815481529060010190602001808311610b1d57829003601f168201915b505050505081526020019060010190610aa2565b50505050815260200160058201805480602002602001604051908101604052809291908181526020018280548015610ba557602002820191906000526020600020905b815481526020019060010190808311610b91575b505050505081525050828281518110610bc157610bc06121fc565b5b60200260200101819052508080610bd79061225a565b915050610847565b508091505090565b60606000806060806060806000600160008a81526020019081526020016000209050806000018160010160009054906101000a900473ffffffffffffffffffffffffffffffffffffffff168260010160149054906101000a900460ff1683600201846003018560040186600501868054610c60906122d1565b80601f0160208091040260200160405190810160405280929190818152602001828054610c8c906122d1565b8015610cd95780601f10610cae57610100808354040283529160200191610cd9565b820191906000526020600020905b815481529060010190602001808311610cbc57829003601f168201915b5050505050965083805480602002602001604051908101604052809291908181526020018280548015610d6157602002820191906000526020600020905b8160009054906101000a900473ffffffffffffffffffffffffffffffffffffffff1673ffffffffffffffffffffffffffffffffffffffff1681526020019060010190808311610d17575b5050505050935082805480602002602001604051908101604052809291908181526020018280548015610dd857602002820191906000526020600020906000905b82829054906101000a900460ff16151581526020019060010190602082600001049283019260010382029150808411610da25790505b5050505050925081805480602002602001604051908101604052809291908181526020016000905b82821015610eac578382906000526020600020018054610e1f906122d1565b80601f0160208091040260200160405190810160405280929190818152602001828054610e4b906122d1565b8015610e985780601f10610e6d57610100808354040283529160200191610e98565b820191906000526020600020905b815481529060010190602001808311610e7b57829003601f168201915b505050505081526020019060010190610e00565b50505050915080805480602002602001604051908101604052809291908181526020018280548015610efd57602002820191906000526020600020905b815481526020019060010190808311610ee9575b50505050509050975097509750975097509750975050919395979092949650565b60006020528060005260406000206000915090508054610f3d906122d1565b80601f0160208091040260200160405190810160405280929190818152602001828054610f69906122d1565b8015610fb65780601f10610f8b57610100808354040283529160200191610fb6565b820191906000526020600020905b815481529060010190602001808311610f9957829003601f168201915b505050505081565b60006001600084815260200190815260200160002090508060010160009054906101000a900473ffffffffffffffffffffffffffffffffffffffff1673ffffffffffffffffffffffffffffffffffffffff163373ffffffffffffffffffffffffffffffffffffffff1614611067576040517f08c379a000000000000000000000000000000000000000000000000000000000815260040161105e90612480565b60405180910390fd5b80600201829080600181540180825580915050600190039060005260206000200160009091909190916101000a81548173ffffffffffffffffffffffffffffffffffffffff021916908373ffffffffffffffffffffffffffffffffffffffff160217905550505050565b6000816000803373ffffffffffffffffffffffffffffffffffffffff1673ffffffffffffffffffffffffffffffffffffffff168152602001908152602001600020908051906020019061112592919061112e565b50339050919050565b82805461113a906122d1565b90600052602060002090601f01602090048101928261115c57600085556111a3565b82601f1061117557805160ff19168380011785556111a3565b828001600101855582156111a3579182015b828111156111a2578251825591602001919060010190611187565b5b5090506111b091906113e6565b5090565b82805482825590600052602060002090810192821561122d579160200282015b8281111561122c5782518260006101000a81548173ffffffffffffffffffffffffffffffffffffffff021916908373ffffffffffffffffffffffffffffffffffffffff160217905550916020019190600101906111d4565b5b50905061123a91906113e6565b5090565b82805482825590600052602060002090601f016020900481019282156112d35791602002820160005b838211156112a457835183826101000a81548160ff0219169083151502179055509260200192600101602081600001049283019260010302611267565b80156112d15782816101000a81549060ff02191690556001016020816000010492830192600103026112a4565b505b5090506112e091906113e6565b5090565b828054828255906000526020600020908101928215611333579160200282015b8281111561133257825182908051906020019061132292919061112e565b5091602001919060010190611304565b5b5090506113409190611403565b5090565b828054828255906000526020600020908101928215611380579160200282015b8281111561137f578251825591602001919060010190611364565b5b50905061138d91906113e6565b5090565b6040518060e0016040528060608152602001600073ffffffffffffffffffffffffffffffffffffffff168152602001600015158152602001606081526020016060815260200160608152602001606081525090565b5b808211156113ff5760008160009055506001016113e7565b5090565b5b80821115611423576000818161141a9190611427565b50600101611404565b5090565b508054611433906122d1565b6000825580601f106114455750611464565b601f01602090049060005260206000209081019061146391906113e6565b5b50565b6000604051905090565b600080fd5b600080fd5b6000819050919050565b61148e8161147b565b811461149957600080fd5b50565b6000813590506114ab81611485565b92915050565b600080fd5b600080fd5b6000601f19601f8301169050919050565b7f4e487b7100000000000000000000000000000000000000000000000000000000600052604160045260246000fd5b611504826114bb565b810181811067ffffffffffffffff82111715611523576115226114cc565b5b80604052505050565b6000611536611467565b905061154282826114fb565b919050565b600067ffffffffffffffff821115611562576115616114cc565b5b61156b826114bb565b9050602081019050919050565b82818337600083830152505050565b600061159a61159584611547565b61152c565b9050828152602081018484840111156115b6576115b56114b6565b5b6115c1848285611578565b509392505050565b600082601f8301126115de576115dd6114b1565b5b81356115ee848260208601611587565b91505092915050565b6000806040838503121561160e5761160d611471565b5b600061161c8582860161149c565b925050602083013567ffffffffffffffff81111561163d5761163c611476565b5b611649858286016115c9565b9150509250929050565b600067ffffffffffffffff82111561166e5761166d6114cc565b5b602082029050602081019050919050565b600080fd5b600061169761169284611653565b61152c565b905080838252602082019050602084028301858111156116ba576116b961167f565b5b835b8181101561170157803567ffffffffffffffff8111156116df576116de6114b1565b5b8086016116ec89826115c9565b855260208501945050506020810190506116bc565b5050509392505050565b600082601f8301126117205761171f6114b1565b5b8135611730848260208601611684565b91505092915050565b600080604083850312156117505761174f611471565b5b600083013567ffffffffffffffff81111561176e5761176d611476565b5b61177a858286016115c9565b925050602083013567ffffffffffffffff81111561179b5761179a611476565b5b6117a78582860161170b565b9150509250929050565b6000602082840312156117c7576117c6611471565b5b600082013567ffffffffffffffff8111156117e5576117e4611476565b5b6117f1848285016115c9565b91505092915050565b600073ffffffffffffffffffffffffffffffffffffffff82169050919050565b6000611825826117fa565b9050919050565b6118358161181a565b82525050565b6000602082019050611850600083018461182c565b92915050565b60006020828403121561186c5761186b611471565b5b600061187a8482850161149c565b91505092915050565b600081519050919050565b600082825260208201905092915050565b60005b838110156118bd5780820151818401526020810190506118a2565b838111156118cc576000848401525b50505050565b60006118dd82611883565b6118e7818561188e565b93506118f781856020860161189f565b611900816114bb565b840191505092915050565b60008115159050919050565b6119208161190b565b82525050565b6000606082019050818103600083015261194081866118d2565b905061194f602083018561182c565b61195c6040830184611917565b949350505050565b61196d8161147b565b82525050565b60006020820190506119886000830184611964565b92915050565b600081519050919050565b600082825260208201905092915050565b6000819050602082019050919050565b600082825260208201905092915050565b60006119d682611883565b6119e081856119ba565b93506119f081856020860161189f565b6119f9816114bb565b840191505092915050565b611a0d8161181a565b82525050565b611a1c8161190b565b82525050565b600081519050919050565b600082825260208201905092915050565b6000819050602082019050919050565b6000611a5a8383611a04565b60208301905092915050565b6000602082019050919050565b6000611a7e82611a22565b611a888185611a2d565b9350611a9383611a3e565b8060005b83811015611ac4578151611aab8882611a4e565b9750611ab683611a66565b925050600181019050611a97565b5085935050505092915050565b600081519050919050565b600082825260208201905092915050565b6000819050602082019050919050565b6000611b098383611a13565b60208301905092915050565b6000602082019050919050565b6000611b2d82611ad1565b611b378185611adc565b9350611b4283611aed565b8060005b83811015611b73578151611b5a8882611afd565b9750611b6583611b15565b925050600181019050611b46565b5085935050505092915050565b600081519050919050565b600082825260208201905092915050565b6000819050602082019050919050565b6000611bb883836119cb565b905092915050565b6000602082019050919050565b6000611bd882611b80565b611be28185611b8b565b935083602082028501611bf485611b9c565b8060005b85811015611c305784840389528151611c118582611bac565b9450611c1c83611bc0565b925060208a01995050600181019050611bf8565b50829750879550505050505092915050565b600081519050919050565b600082825260208201905092915050565b6000819050602082019050919050565b611c778161147b565b82525050565b6000611c898383611c6e565b60208301905092915050565b6000602082019050919050565b6000611cad82611c42565b611cb78185611c4d565b9350611cc283611c5e565b8060005b83811015611cf3578151611cda8882611c7d565b9750611ce583611c95565b925050600181019050611cc6565b5085935050505092915050565b600060e0830160008301518482036000860152611d1d82826119cb565b9150506020830151611d326020860182611a04565b506040830151611d456040860182611a13565b5060608301518482036060860152611d5d8282611a73565b91505060808301518482036080860152611d778282611b22565b91505060a083015184820360a0860152611d918282611bcd565b91505060c083015184820360c0860152611dab8282611ca2565b9150508091505092915050565b6000611dc48383611d00565b905092915050565b6000602082019050919050565b6000611de48261198e565b611dee8185611999565b935083602082028501611e00856119aa565b8060005b85811015611e3c5784840389528151611e1d8582611db8565b9450611e2883611dcc565b925060208a01995050600181019050611e04565b50829750879550505050505092915050565b60006020820190508181036000830152611e688184611dd9565b905092915050565b600082825260208201905092915050565b6000611e8c82611a22565b611e968185611e70565b9350611ea183611a3e565b8060005b83811015611ed2578151611eb98882611a4e565b9750611ec483611a66565b925050600181019050611ea5565b5085935050505092915050565b600082825260208201905092915050565b6000611efb82611ad1565b611f058185611edf565b9350611f1083611aed565b8060005b83811015611f41578151611f288882611afd565b9750611f3383611b15565b925050600181019050611f14565b5085935050505092915050565b600082825260208201905092915050565b6000611f6a82611b80565b611f748185611f4e565b935083602082028501611f8685611b9c565b8060005b85811015611fc25784840389528151611fa38582611bac565b9450611fae83611bc0565b925060208a01995050600181019050611f8a565b50829750879550505050505092915050565b600082825260208201905092915050565b6000611ff082611c42565b611ffa8185611fd4565b935061200583611c5e565b8060005b8381101561203657815161201d8882611c7d565b975061202883611c95565b925050600181019050612009565b5085935050505092915050565b600060e082019050818103600083015261205d818a6118d2565b905061206c602083018961182c565b6120796040830188611917565b818103606083015261208b8187611e81565b9050818103608083015261209f8186611ef0565b905081810360a08301526120b38185611f5f565b905081810360c08301526120c78184611fe5565b905098975050505050505050565b6120de8161181a565b81146120e957600080fd5b50565b6000813590506120fb816120d5565b92915050565b60006020828403121561211757612116611471565b5b6000612125848285016120ec565b91505092915050565b6000602082019050818103600083015261214881846118d2565b905092915050565b6000806040838503121561216757612166611471565b5b60006121758582860161149c565b9250506020612186858286016120ec565b9150509250929050565b7f456c656374696f6e2069732064697361626c65642e0000000000000000000000600082015250565b60006121c660158361188e565b91506121d182612190565b602082019050919050565b600060208201905081810360008301526121f5816121b9565b9050919050565b7f4e487b7100000000000000000000000000000000000000000000000000000000600052603260045260246000fd5b7f4e487b7100000000000000000000000000000000000000000000000000000000600052601160045260246000fd5b60006122658261147b565b91507fffffffffffffffffffffffffffffffffffffffffffffffffffffffffffffffff82036122975761229661222b565b5b600182019050919050565b7f4e487b7100000000000000000000000000000000000000000000000000000000600052602260045260246000fd5b600060028204905060018216806122e957607f821691505b6020821081036122fc576122fb6122a2565b5b50919050565b600081905092915050565b60008190508160005260206000209050919050565b6000815461232f816122d1565b6123398186612302565b94506001821660008114612354576001811461236557612398565b60ff19831686528186019350612398565b61236e8561230d565b60005b8381101561239057815481890152600182019150602081019050612371565b838801955050505b50505092915050565b60006123ad8284612322565b915081905092915050565b60006123c38261147b565b91506123ce8361147b565b9250827fffffffffffffffffffffffffffffffffffffffffffffffffffffffffffffffff038211156124035761240261222b565b5b828201905092915050565b7f4f6e6c792074686520656c656374696f6e2063726561746f722063616e20616460008201527f6420766f7465722e000000000000000000000000000000000000000000000000602082015250565b600061246a60288361188e565b91506124758261240e565b604082019050919050565b600060208201905081810360008301526124998161245d565b905091905056fea26469706673582212206d0abf4e50320f3b39e0a0478ea2261e677b3007221f49d2538c7c3573f1413a64736f6c634300080d0033",
  "immutableReferences": {},
  "source": "pragma solidity >=0.4.25 <0.9.0;\n\ncontract VotingApp {\n    // User Management\n    mapping(address => string) public users;\n\n    function register(string memory _password) public returns (address) {\n        users[msg.sender] = _password;\n        return msg.sender;\n    }\n\n    function login(string memory _password) public view returns (address) {\n        if (keccak256(bytes(users[msg.sender])) == keccak256(bytes(_password)))\n            return msg.sender;\n\n        return address(0);\n    }\n\n    // Voting\n    struct Election {\n        string name;\n        address creator;\n        bool isDisable;\n        address[] voters;\n        bool[] voted;\n        string[] optionNames;\n        uint256[] optionVotes;\n    }\n\n    mapping(uint256 => Election) public elections;\n    uint256 public electionCounter;\n\n    function createElection(\n        string memory name,\n        string[] memory options\n    ) public {\n        uint256 electionId = electionCounter++;\n        Election storage newElection = elections[electionId];\n        newElection.name = name;\n        newElection.creator = msg.sender;\n        newElection.isDisable = false;\n\n        newElection.voters = new address[](0);\n        newElection.voted = new bool[](99);\n        newElection.optionNames = options;\n        newElection.optionVotes = new uint256[](options.length);\n    }\n\n    function addVoters(uint256 electionId, address voter) public {\n        Election storage election = elections[electionId];\n        require(\n            msg.sender == election.creator,\n            \"Only the election creator can add voter.\"\n        );\n\n        election.voters.push(voter);\n    }\n\n    function disableElection(uint256 electionId) public {\n        Election storage election = elections[electionId];\n        election.isDisable = true;\n    }\n\n    function getAllElections() public view returns (Election[] memory) {\n        Election[] memory result = new Election[](electionCounter);\n\n        for (uint256 i = 0; i < electionCounter; i++) {\n            result[i] = elections[i];\n        }\n\n        return result;\n    }\n\n    function vote(uint256 electionId, string memory option) public {\n        Election storage election = elections[electionId];\n        require(!election.isDisable, \"Election is disabled.\");\n\n        uint256 voterIndex;\n        for (uint256 i = 0; i < election.voters.length; i++) {\n            if (election.voters[i] == msg.sender) {\n                voterIndex = i;\n            }\n        }\n\n        uint256 optionIndex;\n        for (uint256 i = 0; i < election.optionNames.length; i++) {\n            if (\n                keccak256(bytes(election.optionNames[i])) ==\n                keccak256(bytes(option))\n            ) {\n                optionIndex = i;\n            }\n        }\n\n        election.voted[voterIndex] = true;\n        election.optionVotes[optionIndex] =\n            election.optionVotes[optionIndex] +\n            1;\n    }\n\n    function getElection(\n        uint256 electionId\n    )\n        public\n        view\n        returns (\n            string memory name,\n            address creator,\n            bool isDisable,\n            address[] memory voters,\n            bool[] memory voted,\n            string[] memory optionNames,\n            uint256[] memory optionVotes\n        )\n    {\n        Election storage election = elections[electionId];\n        return (\n            election.name,\n            election.creator,\n            election.isDisable,\n            election.voters,\n            election.voted,\n            election.optionNames,\n            election.optionVotes\n        );\n    }\n}\n",
  "sourcePath": "C:\\Users\\ADMIN\\Workspace\\blockchain\\evoting_app\\client\\src\\contracts\\VotingApp.sol",
  "compiler": {
    "name": "solc",
    "version": "0.8.13+commit.abaa5c0e.Emscripten.clang"
  },
  "schemaVersion": "3.4.13",
  "updatedAt": "2023-04-28T02:59:18.458Z",
  "networkType": "ethereum",
  "devdoc": {
    "kind": "dev",
    "methods": {},
    "version": 1
  },
  "userdoc": {
    "kind": "user",
    "methods": {},
    "version": 1
  }
}